S01B0000436F6E7461646F725F385F626974735F656E432E73726563B2
S11300000C9434000C9451000C9451000C94510045
S11300100C948D000C9451000C9451000C945100DC
S11300200C9451000C9451000C9451000C94510008
S11300300C9451000C9451000C9451000C945100F8
S11300400C9451000C9451000C9451000C945100E8
S11300500C9451000C94A8010C9451000C94510080
S11300600C9451000C94510011241FBECFEFD8E022
S1130070DEBFCDBF11E0A0E0B1E0E4E2F4E002C0F5
S113008005900D92A031B107D9F721E0A0E1B1E0CC
S113009001C01D92A431B207E1F70E94DA010C9469
S11300A010020C94000087B18C7B87B988B18360FF
S11300B088B98AB18FEF8AB984B18F6384B987B163
S11300C08C6387B9E8E6F0E0808182608083ECE6A7
S11300D0F0E080818360808378941092C1001BB823
S11300E00895809110018F5F809310018091100119
S11300F0089580911001882331F08091100181507E
S11301008093100108958FEF8093100108958BB1AF
S11301101BB8809110018BB908951F920F920FB6EE
S11301200F9211242F933F934F935F936F937F9379
S11301308F939F93AF93BF93EF93FF93309B0E9452
S11301407100319B0E947900FF91EF91BF91AF91B3
S11301509F918F917F916F915F914F913F912F91DB
S11301600F900FBE0F901F901895ACE7B0E01C9253
S1130170EAE7F0E010828081876880838C91806652
S11301808C938C9186608C938081886080830895A1
S1130190E0911201F0E0E050FF4F8081807490E024
S11301A09595879595958795959587959595879533
S11301B028B12370822B98B1892B88B9E091120160
S11301C0F0E0E050FF4F8081807290E09595879534
S11301D095958795959587959595879598B1892B4C
S11301E088B9E0911201F0E0E050FF4F8081807106
S11301F090E095958795959587959595879595B173
S1130200892B85B9E0911201F0E0E050FF4F808125
S1130210887090E09595879595B1892B85B9E09183
S11302201201F0E0E050FF4F8081847090E0880F6D
S1130230991F95B1892B85B9E0911201F0E0E05046
S1130240FF4F8081827090E0880F991F880F991F5B
S1130250880F991F95B1892B85B9E0911201F0E0BF
S1130260E050FF4F808195B18170892B85B9089545
S1130270E0911101F0E0E050FF4F8081807490E044
S11302809595879595958795959587959595879552
S113029028B12370822B98B1892B88B9E091110180
S11302A0F0E0E050FF4F8081807290E09595879553
S11302B095958795959587959595879598B1892B6B
S11302C088B9E0911101F0E0E050FF4F8081807126
S11302D090E095958795959587959595879595B192
S11302E0892B85B9E0911101F0E0E050FF4F808146
S11302F0887090E09595879595B1892B85B9E091A3
S11303001101F0E0E050FF4F8081847090E0880F8D
S1130310991F95B1892B85B9E0911101F0E0E05066
S1130320FF4F8081827090E0880F991F880F991F7A
S1130330880F991F95B1892B85B9E0911101F0E0DF
S1130340E050FF4F808195B18170892B85B9089564
S11303501F920F920FB60F9211248F93EF93FF9376
S11303608091790080931301809113018F708093A1
S113037012018091130182958F7080931101EAE735
S1130380F0E0808180618083FF91EF918F910F90E5
S11303900FBE0F901F90189590911301809110013A
S11303A0891720F485B1816085B9089585B18E7F60
S11303B085B908950E9453000E94B5000E948700E9
S11303C088B1806288B988B18F7E88B985B1817C13
S11303D085B988B1837F88B90E94C8008FE39CE9FE
S11303E00197F1F700C0000088B1806188B988B135
S11303F08F7D88B985B1817C85B988B1837F88B9BF
S11304000E9438018FE39CE90197F1F700C00000D6
S1130410EAE7F0E08081806480830E94CC01CECF43
S1070420F894FFCF7A
S11304243F0C5B7366757D237F676F7C1D7A5D4D1E
S9030000FC
